:020000040000fa
:08000000000c040000000000e8
:020000040000fa
:100008003a7a00003a7a00003a7a00003a7a000018
:100018003a7a00003a7a00003a7a00003a7a000008
:10002800324b00003a7a00003a7a000088730000e8
:100038003a7a00003a7a00003a7a00003a7a0000e8
:100048003a7a00003a7a00003a7a00008275000095
:100058003a7a0000ca5300003a7a00003a7a00005f
:100068003a7a00003a7a00003a7a00003a7a0000b8
:100078003a7a00003a7a00003a7a00003a7a0000a8
:100088003a7a00003a7a00003a7a00003a7a000098
:100098003a7a00003a7a00003a7a00003a7a000088
:1000a8003a7a00003a7a00003a7a00003a7a000078
:1000b8003a7a00003a7a00003a7a00003a7a000068
:1000c8003a7a00003a7a00003a7a00003a7a000058
:1000d8003a7a00003a7a00003a7a00003a7a000048
:1000e8003a7a00003a7a00003a7a00003a7a000038
:1000f8003a7a00003a7a00003a7a00003a7a000028
:100108003a7a00003a7a00003a7a00003a7a000017
:100118003a7a00003a7a00003a7a00003a7a000007
:100128003a7a00003a7a00003a7a00003a7a0000f7
:100138003a7a00003a7a00003a7a00003a7a0000e7
:100148003a7a00003a7a00003a7a00003a7a0000d7
:100158003a7a00003a7a00003a7a00003a7a0000c7
:100168003a7a00003a7a00003a7a00003a7a0000b7
:100178003a7a00003a7a00003a7a00003a7a0000a7
:100188003a7a00003a7a00003a7a00003a7a000097
:100198003a7a00003a7a00003a7a00003a7a000087
:1001a8003a7a00003a7a00003a7a00003a7a000077
:1001b8003a7a00003a7a00003a7a00003a7a000067
:1001c8003a7a00003a7a00003a7a00003a7a000057
:1001d8003a7a00003a7a00003a7a00003a7a000047
:1001e8003a7a00003a7a00003a7a00003a7a000037
:0801f8003a7a00003a7a000097
:020000040000fa
:08020000000c00000a000000e0
:020000040000fa
:100208003a7a00003a7a00003a7a00003a7a000016
:100218003a7a00003a7a00003a7a00003a7a000006
:10022800324b00003a7a00003a7a000088730000e6
:100238003a7a00003a7a00003a7a00003a7a0000e6
:100248003a7a00003a7a00003a7a00008275000093
:100258003a7a0000ca5300003a7a00003a7a00005d
:100268003a7a00003a7a00003a7a00003a7a0000b6
:100278003a7a00003a7a00003a7a00003a7a0000a6
:100288003a7a00003a7a00003a7a00003a7a000096
:100298003a7a00003a7a00003a7a00003a7a000086
:1002a8003a7a00003a7a00003a7a00003a7a000076
:1002b8003a7a00003a7a00003a7a00003a7a000066
:1002c8003a7a00003a7a00003a7a00003a7a000056
:1002d8003a7a00003a7a00003a7a00003a7a000046
:1002e8003a7a00003a7a00003a7a00003a7a000036
:1002f8003a7a00003a7a00003a7a00003a7a000026
:100308003a7a00003a7a00003a7a00003a7a000015
:100318003a7a00003a7a00003a7a00003a7a000005
:100328003a7a00003a7a00003a7a00003a7a0000f5
:100338003a7a00003a7a00003a7a00003a7a0000e5
:100348003a7a00003a7a00003a7a00003a7a0000d5
:100358003a7a00003a7a00003a7a00003a7a0000c5
:100368003a7a00003a7a00003a7a00003a7a0000b5
:100378003a7a00003a7a00003a7a00003a7a0000a5
:100388003a7a00003a7a00003a7a00003a7a000095
:100398003a7a00003a7a00003a7a00003a7a000085
:1003a8003a7a00003a7a00003a7a00003a7a000075
:1003b8003a7a00003a7a00003a7a00003a7a000065
:1003c8003a7a00003a7a00003a7a00003a7a000055
:1003d8003a7a00003a7a00003a7a00003a7a000045
:1003e8003a7a00003a7a00003a7a00003a7a000035
:0803f8003a7a00003a7a000095
:020000040000fa
:10180000ef0521000e7f22000e018800000000007d
:10181000000020000000e000020032000001200073
:10182000200288000c00070040a3260001002000d1
:1018300011000700000020000000e000020032005c
:101840000000020000000000b0750200000000006f
:101850000040da000000fe004440a900800b200098
:101860000000e0000300320000002000a00188001a
:101870004440a80000000600910188008000780024
:101880000000eb0015003700e280400032a0b400f9
:101890009101ba00e280400032a0b4009102ba0087
:1018a000e280400032a0b4000002eb00472bde00d3
:1018b000f507b200602ce10004003a000059eb008b
:1018c0008301e900fdff3e00040037006128e100cc
:1018d000010032000082eb00040007001101ba0091
:1018e0000200e000e8ff3a00000006003159ba00ab
:1018f0008301e9000c0032002159ba008301e9009c
:10190000080032000400e00003003a00e2804000da
:1019100032a0b400f5ff370011d9ba008301e90005
:10192000faff3a008100e800e180400032a0b400f4
:10193000000006000a00fa00e20f500022003e00fc
:10194000e4828000e10f520006003200872320006d
:10195000462320002423200005232000e08f53008d
:1019600004003a0087222000462220002422200082
:1019700005222000000028001500600003003a0046
:10198000800b780007002800958a7300054020002e
:101990009482620001003a0014a0a0008202780044
:1019a00006003700940378000710b200fdff3200f4
:1019b000b103fb00070b78008502e900e08f5200bd
:1019c000f8ff3a000800370034002000c0bf9f0035
:1019d000e2bf9f00b4bf9f00d1bf9f006a80570045
:1019e000b20d07006fb99700020078000080fa007e
:1019f0000000060003f0a200889fbe008a9fbe0080
:101a00008c1f78002a010700310133006450e10087
:101a10004f0032006420e1005200320003826c006b
:101a200007003b000905d0000306d000820f5400d8
:101a30000c065d00020039000200320089017800c6
:101a4000030678008582550004003d000003fd0078
:101a50008103fd008502ea008b854200840f72003d
:101a600002003b0060001000e08018006011b80028
:101a70000005eb007a28e1000a0039000600780032
:101a8000c75ddd00f707b200878075002d003700c5
:101a9000828171000a017800610560008180d100b7
:101aa0000080d3008502e900f9ff3b0006044000f6
:101ab0008784480002003b0060041400e0841c009e
:101ac0000988a300070032008a81710082817100b9
:101ad000610164008904d1000884d3008b05e8000b
:101ae000170037000978a30013003a000b00e0004c
:101af000130034008b05e9000804440089844c007d
:101b00000a4474000978a3000d003a000b00e000bd
:101b1000070034008b05e9000804440089844c0068
:101b200001003a000b0020000978a300f7ff320003
:101b30000001eb0002003700828171000a01780089
:101b4000a00007000cf0a70001f0a000e90037009a
:101b50006420e10002003a00838f6c00e90033004a
:101b60000801be000200be00e20037000081eb0069
:101b70001b013700889fbe008a9fbe008c1f780023
:101b8000cb000700d200330003866c006450e100f4
:101b90002e0032006420e100330032006150e10089
:101ba0002f0032006120e1003100320085855500b0
:101bb000eb07b000090020000804200005003700f2
:101bc0000804440089844c000a00310006034300e5
:101bd00087834b000001530081815b00f8ff3300d5
:101be0000203be000800a0000804440089844c00e1
:101bf000f6ff3900c639dd008301730001003200b1
:101c0000130020008904d1000884d3000998a300a0
:101c1000050032000800a7000300a0008904d100dd
:101c20000884d3008b05e8008904d1000884d30020
:101c30000001eb000281d2006200070001f0a10068
:101c40000cf0a70001f0a000aa0037006420e1001a
:101c5000ac0032000801be000200be00f7ff3700f2
:101c60006120e100a70032006000b800f3ff3700f8
:101c70000000200001f82700f0ff3700839f680074
:101c80000100e00002003d0060001000e08018004c
:101c90000300e00002003d0060011100e081190036
:101ca0003a0107004f00e00002003b006000100016
:101cb000e0801800000006001400200043013700f7
:101cc000f4ff2f00410137000001be006300070050
:101cd0000470a70003f0a1006509b10016003200ee
:101ce0000d0035006828e10006003500f0ff2f00e8
:101cf000f1ff27000300e00013003b000100280073
:101d00000000050000004000818048008502e900d5
:101d1000fcff3a0008003700f88f420002003c0048
:101d20008000eb00000005008100d1000080d3009e
:101d30008502e800fcff3a000300e00002003b00df
:101d400060001000e0801800000006000001be00e6
:101d5000420007000470a70003f0a10003f8a300ed
:101d600013003a006509b100100032000900350087
:101d70006928e1000200350001002800000005008c
:101d800000004000818048008502e900fcff3a0025
:101d900000000600f88f4200050035008100d100e8
:101da0000080d3008502e800fcff3a000000060036
:101db0008000eb00000005004f89de008201780002
:101dc0001d01370081002000618055000b003d009f
:101dd0000b00200061fe2f000100e1001d00340017
:101de00082817100610164008904d1000884d300fc
:101df0000000e800faff3a00710020006100640072
:101e00000300700002006000090032006104440019
:101e1000e0844c000988a500050032008b05e8002d
:101e20006808e10002003a008904d1000884d30068
:101e3000f20f20000258e10005003d00c75ddd0003
:101e4000f907b200898075000800780000000600dc
:101e50000bf827008b00780000000500c70ade00a1
:101e6000f107b200f50fb20008003200e1cf4200e6
:101e7000020032000170a00024000500810f7000f4
:101e8000010032000408050044000500810f7000c5
:101e900002003a00140005008502e900000040003d
:101ea00081c04800fcff3b000170a0002400050039
:101eb0000004be00e9ff07000003be000405be00e9
:101ec0000200be00e5ff0700844f75000000060019
:101ed0000200be006450e100050036006420e1000d
:101ee000020036000968a30001003a000800be00a5
:101ef0000160a0004f0678004f05be004f04be00f1
:101f000000000600f0ff2f00f1ff2700f9ff370067
:101f1000889fbe008a9fbe008c1f7800e4ff0700e8
:101f2000ebff330003866c006450e10024003200b4
:101f30006420e100270032006150e10022003200fd
:101f40006120e100210032008b854200eb07b100e7
:101f50000134b800003ab8000804420089844a00fd
:101f6000013ab8000030b8008880400009014a00fa
:101f70000400330000004000818048000201490055
:101f80008b05e900c909dd00830170000100320002
:101f900013002000c814de004814dd004709de00ed
:101fa0001200b200c808de000884700085ff070038
:101fb00001f0a1000cf0a70001f0a000cdff370058
:101fc0006120e100cfff32000801be000200be0028
:101fd000f7ff37006150e100fcff3a00c9ff37000e
:101fe000889fbe008a9fbe008c9fbe00820578003d
:101ff0000004be0099ff07000800be006420e10055
:102000000700390002003a00f1ff2700f0ff2f001f
:102010000160a000120220002270880055003700e5
:102020006120e10003003a000b00a70001f8230043
:102030005000370001f0a100020021009364240049
:102040001dff07000800be0004003500b2fd20009f
:10205000930c2400b70007000004be000005eb004d
:102060000b00a6004f0dde0001f0a1000004be0031
:1020700032982f0023ea2300a5ff07000001eb00a0
:1020800003f023000b00a70003f823005afe07000b
:102090000dff07000000a7000a00a20046ff07008e
:1020a0000b00e000030032000200200003f02300d8
:1020b00050fe070001f0a2000006be000200200052
:1020c0009304240092ff07000801be004afe0700a7
:1020d000809fbe000c00be0022a22a00d3a72300ce
:1020e0008bff07004f01be0043fe07000004be0047
:1020f00001f0a1000200200003982300eefe07007b
:102100000800be00190035000001be0080ff070076
:102110000006be00b2c52900e36223007cff070071
:1021200022222b00f3942b0033fe07000c01be008b
:1021300077ff0700e273280083c023002efe07000c
:102140000c01be0072ff070042aa2a00a3e22b0086
:1021500029fe07000c01be006dff07000801be004c
:102160006bff07000801be0023fe07000a00a7005e
:1021700001f0a2004f06be004f05be004f04be0096
:10218000000006000001eb0095ff37006022b80058
:10219000060220000000d0008180d2000482d2001c
:1021a0008582d2000000a0000202520083825a0001
:1021b000030031000202420083824a000000a100b5
:1021c0000603e900f3ff3a0000000600889fbe0006
:1021d0008a9fbe00841f780035ff07004f007800fb
:1021e00011003300f0ff2f00838f6c0006003b00ce
:1021f000040565000a00a7000800370009f0a600e2
:102200001000200008003700820f5400838f5c000c
:10221000030039001000200001003e0000002000f3
:1022200009f0a7000000ea004f05be004f04be0001
:102230000000e00000000600881f7800030478001a
:102240000300e00007003d0060001000e08018007f
:1022500060011900e081190002003b0001f02d002f
:10226000030037000400070008f0a70001f0a000f9
:102270004f04780000000600889fbe008a9fbe00c1
:102280000082700004027100048271002600320096
:102290000004be000200be006011b8006b092000ff
:1022a000950220000182cf000a0039000541b100eb
:1022b0000082cf00070039000541b1000982cf003c
:1022c000040039000541b1000882cf000100390047
:1022d0000541b10005425200120032000a003b00e5
:1022e00082817100610164008100d1000080d3000f
:1022f0008984d3000884d3008b05e8000442e800f9
:10230000f7ff3a00070037000804440089844c00b6
:1023100000004800818048008b05e9000442e90084
:10232000f9ff3a00a7fe07004f05be004f04be00ac
:10233000000006000400200000003700889fbe0057
:102340008a9fbe008c1f78004f26dd00d8fe070054
:10235000dffe33006120e100430032006250e10003
:1023600041003e003e0039006420e1003c003200a4
:10237000058255000f003b000402e80038003a00d7
:10238000800f5300818f5b00350034000800be00d1
:1023900003f0a10001f0a60003f0a0000cf0a700dc
:1023a00095fd0700d3fe37000603430087834b00eb
:1023b0000c4646000005530081855b000200330097
:1023c0000a03be000c00a0000402e900f6ff3b0077
:1023d000850578000602430087824b0004003a001e
:1023e0006000b80009f0a70001f0a000c1fe3700ae
:1023f0000002520081825a000704e000040033000a
:102400000603430087834b008b05e900faff370082
:10241000090578000604be000203be006011b80082
:1024200068fe0700e00f5200e08f5a0007003500f9
:1024300002003c000c08a300040032000601be00ac
:1024400003f0a0000cf0a7006bfd07000a856800f0
:1024500001f0a1000af0a70001f0a000a5fe3700de
:102460000800be00a3fe3700100220000cf0a600fa
:1024700020708800a3fe37000002780002003700b9
:10248000315a78000201e900e00f5100fcff3a00e8
:1024900000000600b042780031c2520002003a004b
:1024a000e0cf5200fbff3a000400fb0000000600f2
:1024b0000c00fa00889fbe00f4ff2700000478009b
:1024c000d4bf9f008004eb0088bf9f0099bf9f008e
:1024d000a8bf9f00240c200070805700b4bf9f004d
:1024e000c40007000fba9700094a78000fba970096
:1024f000080052004f04be000080fa0000000600f1
:10250000d4c6b3000800fa00889fbe000084fb0018
:102510008a9fbe00844f50003400360069eb2000d3
:102520004b062000110009000b84d8007200400007
:102530004300dd0000804400810578006022b8007f
:102540000600200007fe2300aa0020005001be0064
:102550004000be00c20c07000002be0011000900ce
:102560008a85d80080057800e9854500c35ddd00d7
:102570008b8544000203be0084bf9f0095bf9f006f
:10258000a6bf9f00b7bf9f003b02be002b03be004b
:102590000fb897009fb897002fb99700bfb9970061
:1025a000af0c07000002be00110009000a84d80029
:1025b000010478004344dd00888444000203be0027
:1025c00084bf9f0095bf9f00a6bf9f00b7bf9f001d
:1025d0003902be002903be000fb897009fb89700cc
:1025e0002fb99700bfb997001d003700ea4f500080
:1025f00013003600aa00200069eb2000110009003a
:102600000a84d80001057800690440004355dd00c4
:102610004344dd00088444008a8444006022b800fa
:102620000600200007fe23003800be002801be007f
:102630008b0c07003902be002903be0008003700da
:1026400064eb20004344dd00080442006022b8002f
:102650000600200007fe23003800be002801be004f
:102660007f0c07004f05be004f04be000080fa003b
:1026700000000600d4c6b3000800fa00889fbe0020
:102680008a9fbe00e04f500022003d000040ea005b
:102690000004fb00844f50000a0034004406200070
:1026a000a9002000110009000404d8006aeb2000f2
:1026b000110009008900d800e9004000c308dd00ce
:1026c00020003700ea4f50000f003400a400200023
:1026d000110009000404d80064eb200069004000e8
:1026e0004300dd0000004200430cdd000802420010
:1026f0005001be004000be005403be004402be00b4
:10270000570c0700370037004344dd0064eb20001e
:10271000310037000004fb00844f500023003400d8
:1027200044062000a9002000110009000404d8007c
:102730006ae02000110009008900d800e90040008b
:10274000c308dd00810045008b0920008a85450013
:102750003102be002103be003b00be002b01be00c3
:102760003f0c07000002be00110009000904d80058
:10277000010478004344dd00080545000203be0063
:1027800084bf9f0095bf9f00a6bf9f00b7bf9f005b
:102790003a02be002a03be000fb897009fb8970008
:1027a0002fb99700bfb99700d5ff3700ea4f500007
:1027b00007003400a4002000110009000404d80020
:1027c00064e02000690040004300dd00c5ff3700e1
:1027d0004344dd0064e02000080442003800be00ed
:1027e0002801be004f05be004f04be000080fa0065
:1027f00000000600ef06b000889fbe008a9fbe0062
:102800008c9fbe00000678008e1f78008006eb00cb
:10281000d1979f00b2af9f006000b8006011b80070
:10282000a0a79f00b1a79f00c2a79f00d3a79f00aa
:102830008c093700df90970054c2b3008100e80094
:10284000d1979f00844f500007003a0001027800a2
:102850008002eb00d0c2b30001c3b30002c2b300d8
:1028600033c2b3000e0037003c0290000404b200f3
:10287000040032001c027800004a7800040ee800d0
:10288000050037000000fb008c007800810907007c
:10289000e10f4000730932008d06e800710937002e
:1028a00084037800b8c2b30034437800884f5300e3
:1028b0000f00320005003c00824f53000a00320036
:1028c000834f530010003a000b003700804f530035
:1028d00003003200814f53000b003a00080037001c
:1028e0000530a000eeff37000500a000ecff370028
:1028f0000510a000eaff370005b0a000e8ff370090
:102900000520a000e6ff370062826200010032006d
:102910000500a10068826200010032000520a100cc
:102920000602fb000403b100e90f52000d003e0057
:10293000070378000000eb003602fb006a00b900d4
:102940000403b10086037800000042001602fb0079
:102950000403b100e90f5200f7ff3600c0af9f003b
:102960000a0037000005eb00a4c2b300caaf9f0005
:10297000844f530005003a00bfad97008703e8007d
:102980004b007800bbaf9f00c0af9f00e4c2b30014
:10299000974f12001b003a0005e0a000644252006d
:1029a000a5b79f00d74f120003003200070378003d
:1029b0000000eb000c0037003fa997008703e800f8
:1029c000c2017800b2af9f00d3af9f0076c6b300bc
:1029d00000c7b300c1c6b3002fb297000e00370086
:1029e0006a00b90000004200860378003602fb004e
:1029f0000403b100e90f5200f9ff3600d0af9f0089
:102a0000f2ff370005c0a0000002eb00a5b79f0051
:102a1000d4af9f00edff3700b7427800d7979f00f3
:102a200086cf52003300320018003c00a4b79f004c
:102a300034c6b30084cf5200d00032000e003c00f8
:102a40007c42520084cf52004400320006003c0019
:102a5000e0cf52000809320004c2e90084cf5200de
:102a6000e6003a003500370084c5b30084cf520039
:102a7000e2003a004700370054c6b30084cf52004a
:102a80001f00320028003c001f00370080cf52009a
:102a90003f0032000a003c0081cf52001c0032008f
:102aa000a4b79f00f4c6b30084cf520033003200b5
:102ab0006642520084cf5200d0003a001200370024
:102ac000a4b79f0054c7b30084cf5200d200320095
:102ad0006342420084cf520004003200654252003b
:102ae00084cf5200c5003a0032003700e5479f000e
:102af0002c003700a4b79f00e6479f001b0037005b
:102b0000e5479f0011003700e5479f00c6003700ea
:102b1000700162000501200001003200050028005c
:102b200004827200bcff3700afb49700e5479f00f6
:102b300009a0a000a9b79f00bb0037002fb59700e0
:102b40000a50a000aab79f00e5479f00afb59700c5
:102b50000b80a000abb79f00b30037002fb09700e9
:102b60000050a000a0b79f00e5479f00afb09700be
:102b70000190a000a1b79f00ab0037002fb19700d4
:102b8000e5479f000260a000a2b79f00a6003700a3
:102b9000a4b79f00afb197000350a000a3b79f0058
:102ba000e5479f002fb297000470a000a4b79f00d4
:102bb0009d003700e5479f00bfaa970045027800b7
:102bc000b5af9f00e4af9f00e00f520002003a0053
:102bd00087022100e7af9f006fab97008002eb00f8
:102be000010037008502e80066c27a00e04f52001b
:102bf000fcff3a00f5af9f005fac9700e00f540078
:102c000005003200ffac9700890f5400020031002c
:102c100008057800faaf9f007faa97000004eb0038
:102c2000cfad9700848f5500010036000484550015
:102c30002fb097000ac2b300e80460000f00320012
:102c4000290037003c0290000404b2000400320066
:102c50001c0278000a4a7800040ee80005003700dc
:102c60008c007800000220008a080700e10f400075
:102c7000010032008d06e8000804e900e00f54006e
:102c8000f0ff3a000084eb0017003700bc02900010
:102c90000504b20009003200880278009c03780025
:102ca00035437800864b780005047800070ee8006d
:102cb000e04f53000a003a00110037008802780004
:102cc0008c0078003500fb00b4b79f000504780045
:102cd000700807003fb29700e10f40000800320083
:102ce0008d06e80006003700080778000902780022
:102cf0006fac9700ffac97000fb597009fb597009a
:102d0000890278008504e900e08f5200dfff3a0075
:102d1000e8af9f00f9af9f008ab79f009bb79f0065
:102d20000e04780084047800e08f54004d083200cf
:102d300009c2b3000e0037003c0290000404b20048
:102d4000040032001c027800094a7800040ee800f2
:102d5000050037008c007800000220004d080700b5
:102d6000e10f4000010032008d06e8000804e90090
:102d7000e00f5400f0ff3a003a083700bfa8970070
:102d80002fb397004102780004047800cfc4de001e
:102d9000090578008a057800b1af9f000800be00e1
:102da0000a01be004800de00480add000000720093
:102db00070026300e0479f0009003200e04f5000be
:102dc00007003200e14f40000500320027002000dc
:102dd000f0479f00884f9f00f7af9f000300370028
:102de000f8479f0018002000f8af9f0079f82f00e7
:102df00089844700e9af9f007fff37006af82f0002
:102e00001b0020000a854700e5479f00eaaf9f00ae
:102e1000fbaf9f0078ff37002fb09700000cb30086
:102e2000a0b79f00e5479f0004702000afb0970057
:102e3000048260005b05320004002100048260000f
:102e40000200320062002000d2af9f00afb19700b5
:102e500070826100050032003faa97004405be0061
:102e60004404be00b4af9f0006003700bfaa97001d
:102e70004500be00b5af9f00b90907000004be00c1
:102e80000205be006022b8006033b8000800be0032
:102e90000a01be0004090700e00f500004003d00d5
:102ea0002fb397003600b300a6b79f000bf0a20027
:102eb0000002eb000800be00d4879f000a01be009c
:102ec0006022b8006033b8005b090700e00f5000d3
:102ed00030003200a4f82f000f0242000800be00ac
:102ee0000a01be00410a07005f809700a40020008d
:102ef0000000e9006300b900110009000400d800d7
:102f0000d0879f00e00f500002003d000000e90064
:102f1000d0879f005f8797000e40ea00d5fd07002d
:102f20000802be000a03be004d0a07000002be00f0
:102f30000203be00a4a79f00b5a79f00c6a79f00dd
:102f4000d7a79f006022b8000600200007ff2300db
:102f5000d5080700e00f500002003d000e02e90016
:102f60000b0037006022b800060020004702240052
:102f70002fa09700bfa097004fa19700dfa1970057
:102f8000ce080700e00f5000020035000e02e800f6
:102f9000d4879f002fb297005f8797000410b2007c
:102fa00008003a002fb297000420b2000703320055
:102fb000e40f470003003500dfaa9700850f570094
:102fc0008e0235005fab9700e00f53000500320022
:102fd0002fb297000420b200020032000603e9007d
:102fe000d6af9f00dfab9700f28f5300030036008f
:102ff00024c1b300e4479f00020037002fd8970098
:10300000e0479f006022b8006033b8000800be00af
:103010000a01be0008090700e00f500063003200fb
:10302000ef409700c1df9f000140570091fd07006e
:103030000002be000203be000800be000a01be007e
:10304000a30807000205be000004be0094090700a3
:10305000e40907000002be000203be000800be0033
:103060000a01be00730a07006022b80006002000b3
:1030700007fe230091080700e00f5000080035000c
:103080000800be000a01be006022b8000600200051
:1030900007fe2300070807000004be000205be006b
:1030a0000a01be000800be007d090700cfdb9700c3
:1030b000a09f9f00b19f9f008703fb0061f6200047
:1030c0000702e8004322dd00048040008002eb009c
:1030d0000003eb00c59f9f00d69f9f00f7a79f00ae
:1030e0003002be002003be002f989700bf989700c3
:1030f0004f999700df999700e4af9f00f5af9f00cd
:1031000086b79f0097b79f000400e1000588e100a3
:103110000690e1000798e1000b0039000400200050
:1031200005002a009699290097fb23000800be009d
:103130000a01be00ca0907000e02e8000004be0032
:103140000205be0018003700ffa0970062f62000bd
:10315000430add00040241002f989700bf989700b2
:103160004f999700df9997005403be004402be00b8
:103170000400e1000588e1000690e1000798e10005
:103180000a0031006022b800060020004702240037
:103190000800be000a01be00b10907000e02e900e6
:1031a0000004be000205be00d4879f0004a02000da
:1031b000afb097008482600004202000848f52000a
:1031c0004c003a005fa99700f40f51000200340050
:1031d00043012000d3af9f000a01be000800be00db
:1031e0002f0907000a01be00e0979f00f1979f009a
:1031f0008002eb000800be00859f9f000003eb00eb
:103200005faf9700969f9f00e0af9f00f1af9f00d8
:1032100082b79f0093b79f006f949700ff94970029
:103220000f9d97009f9d9700090037000800be0082
:103230000a01be000e07e900a400200005002000de
:103240006033b800ae0a07000205be000004be00ed
:10325000e00f5400e08f5c00e00f5d00e08f5d0048
:103260000b003200a4002000050020006033b800ed
:103270000800be000a01be00a80a0700e00f5000c7
:10328000e08f5800e00f5900e08f5900e7ff32004f
:103290008e007800e8979f00f9979f008a9f9f0013
:1032a0009b9f9f006f409700d1af9f006fac97002e
:1032b000ffac97000fb597009fb597000002fb0089
:1032c000848f50000b003d0001405000e9fc0700d6
:1032d0000002be000203be000800be000a01be00dc
:1032e000fb070700afda97000004be000205be002e
:1032f000e5479f004fab9700dfab97006502530097
:1033000007075200e08f530004003a0004802000b9
:103310002fb0970004026000010032000e07e900a0
:10332000afb0970063826000010032000e07e90031
:103330002fb19700640261003a003200620361001d
:103340003c029000e1026100e00f530010003200e7
:103350000404b200080032001c037800b4c2b300b9
:10336000e08f52000100320004c2e800044b7800f4
:10337000060ee80014003700b0022000e08f520073
:10338000010032000080e8008c0078000b0037005c
:10339000e08f52001f0032000404b200050032002a
:1033a0009c02780004c2b300844a7800050ee8004d
:1033b000050037008c00780000022000b5060700e9
:1033c000e10f4000130032008d06e80011003700c5
:1033d0003c0290000404b200040032001c02780099
:1033e000054a7800040ee80007003700c5b79f00c3
:1033f0008c00780000032000a6060700cfb29700db
:10340000e10f4000010032008d06e8000e07e900e0
:103410000100370005c3b300e00f5700ecff3c008c
:103420003e003700afb197006882610015003a0096
:10343000110037003c0290000404b2000400320086
:103440001c027800054a7800040ee80007003700e7
:10345000c5b79f008c007800000220008d06070091
:10346000cfb29700e10f4000010032008d06e80066
:103470000e07e9000100370005c2b300e00f570056
:10348000ecff3c002fb29700afb3970062036200dd
:10349000e18263003c029000e00f53001000320014
:1034a0000404b200080032001c037800b4c2b30068
:1034b000e08f52000100320004c2e800044b7800a3
:1034c000060ee80014003700b0022000e08f520022
:1034d000010032000080e8008c0078000b0037000b
:1034e000e08f52000d0032000404b20005003200eb
:1034f0009c02780004c2b300844a7800050ee800fc
:10350000050037008c0078000002200061060700eb
:10351000e10f4000010032008d06e8000a01be0004
:103520000800be000005eb005d0807008004eb000a
:103530003c029000ef459700e09f9f00f19f9f00a5
:1035400089a79f009aa79f000404b2008b02fb008a
:10355000890f520011003200432add0065f6200079
:10356000848242001c0478006f989700ff989700af
:103570000fa197009fa197005503be004502be0012
:10358000df0907000043b000004c7800080ee80097
:10359000e04f500010003a0010003700432add00d1
:1035a00065f62000848242006f989700ff9897008c
:1035b0000fa197009fa197005503be004502be00d2
:1035c000cf0907008c0078000003b0003106070027
:1035d000e10f4000010032008d06e8006f409700c7
:1035e0000002fb00c322dd0064f620000502420059
:1035f0006f989700ff9897000fa197009fa19700e1
:103600005403be004402be00c4090700dfaa9700ad
:10361000e0af9f00f1af9f0082b79f0093b79f007c
:10362000e08f520004003a00048020002fb397007e
:1036300004026300720032003c0290000404b200f5
:10364000050032009c027800e4c2b300844a78008e
:10365000050ee800050037008c007800e00220002d
:103660000c060700e10f4000010032008d06e80063
:103670002fb59700ef4597000a20b20069f62000a9
:1036800044003700e00f55000d0032006fa897008e
:10369000ffa897000fb197009fb19700e00f50006f
:1036a000e08f5800e00f5900e08f590004003a0005
:1036b0008040eb000004eb00e1479f004d00370025
:1036c0003c0290008502fb000404b20011003200ad
:1036d000c32add00858244001c0478005503be0027
:1036e0004502be006fa89700ffa897000fb1970092
:1036f0009fb197008209070005c3b300054240004f
:10370000044c7800080ee800e04f520011003a0027
:1037100011003700c32add00858244006fa897009e
:10372000ffa897000fb197009fb197005503be0007
:103730004502be00720907008c00780004032000d7
:103740000002420004007800d2050700e10f4000ab
:10375000010032008d06e8006f4397000602fb006f
:103760004322dd00048244006fa89700ffa8970061
:103770000fb197009fb197005403be004402be00f2
:1037800066090700e0af9f00f1af9f0082b79f007e
:1037900093b79f006f4297008442e900e5479f007e
:1037a000e04f5200b7ff3a000b02fb00dfaa970080
:1037b000048452000f0037003c0290000404b20061
:1037c000040032001c027800094a7800040ee80068
:1037d000050037008c00780000032000ad050700cd
:1037e000e10f4000010032008d06e8000804e90006
:1037f0000100370009c3b300e00f5400eeff3a00a8
:10380000afb297003c0290000502b20008003200ff
:103810000404b200030032009c02780054c4b300d8
:10382000070037008c0078005004200009003700a2
:103830000404b200050032009c02780054c6b300b4
:10384000844a7800050ee800050037008c007800f7
:10385000500620008f050700e10f400001003200f4
:103860008d06e8005f829700bc029000e00f5200d6
:103870000d003d000402ea00d4879f000502780095
:103880000404b200050032009c027800d4c2b300e8
:10389000844a7800050ee800100037008c0078009c
:1038a000d00220000a003700050278000404b200ac
:1038b000050032001c027800b6c2b300064a780048
:1038c000040ee800050037008c007800b0022000ec
:1038d00070050700e10f4000010032008d06e8008e
:1038e0003c0290005f8097000404b2000b0032009d
:1038f0009c027800a400200007c3b3001100090057
:103900000400d80007424000844a7800050ee80011
:10391000e04f520009003a0009003700a4002000df
:10392000110009000400d8008c0078000003b000ea
:1039300058050700e10f4000010032008d06e80045
:103940003c0290005f8097000404b2000b0032003c
:103950009c027800a400200008c3b30011000900f5
:103960000400d80008c24000844a7800050ee80030
:10397000e04f52000a003a000a003700a40020007d
:10398000110009000400d8000003200001004000dd
:103990008c0078003f050700e10f40000100320075
:1039a0008d06e800afb49700688264002d053200f0
:1039b000e00f57002b05340008c2b3003c02900012
:1039c0000404b200040032001c027800084a7800a7
:1039d000040ee800050037008c007800000220008b
:1039e0002c050700e10f4000010032008d06e800c1
:1039f0000e07e900f1ff3a001a053700e00f570003
:103a000004003d005fa897000e82ea000400400019
:103a1000d0af9f000800be000a01be00ef060700fd
:103a20000802be00e0af9f00f1af9f0082b79f0089
:103a300093b79f000a03be0061f620000040eb0030
:103a4000f4a79f0085af9f0096af9f00a7af9f0090
:103a50000c0037003102be003103be006fac97008e
:103a6000ffac97000fb597009fb597000440e100a9
:103a700005c8e10006d0e10007d8e10003003900e5
:103a80000040e800f44f5000f2ff3a000002fb0053
:103a90007fa497008fac97001fad9700afad970044
:103aa0005fa8970004005000d0af9f00f80f5000af
:103ab00009003c002fd8970091fa07000002be00d1
:103ac0000203be000800be000a01be00790507001f
:103ad0000004be000205be002fd89700e5fa0700db
:103ae0000002be000203be006fa89700ffa8970067
:103af0000fb197009fb19700f4a79f0085af9f007b
:103b000096af9f00a7af9f000b0707000002be0003
:103b10000203be000800be000a01be00c507070080
:103b20000002be000203be007fa097008fa897008e
:103b30001fa99700afa9970049070700a70607002c
:103b40000802be000a03be005faf9700e4af9f000b
:103b5000f5af9f0086b79f0097b79f000205be0094
:103b60000004be00090037000800be000a01be00c4
:103b7000a4002000050020006033b80060080700a2
:103b80000e07e9000205be000004be00e00f57006a
:103b90001b003200a4002000050020006033b800a4
:103ba0000800be000a01be005c080700e00f5000dc
:103bb000e08f5800e00f5900e08f5900eaff320013
:103bc0008e027800d5af9f000f0037005fab9700e3
:103bd000f80f530010003c000640780048fa070038
:103be0000002be000203be000800be000a01be00c3
:103bf000300507000004be000205be0006003700c5
:103c00008e037800d7af9f006fac9700ffac970092
:103c10000fb597009fb597005f879700e90f570092
:103c200011003c006022b8006033b8000800be00fc
:103c30000a01be0000060700e00f50002c00320011
:103c40000800be000a01be0064060700e00f500035
:103c5000e08f5800e00f5900e08f590024003a002f
:103c6000e10f5700220034000400200005002e0060
:103c7000b6e02200170124002fa09700bfa09700f4
:103c80004fa19700dfa1970087050700e00f5000c4
:103c900002003d007307570001003700720757000c
:103ca000de879f002f48970072fa07000002be00cf
:103cb0000203be000800be00a4a79f00b5a79f0096
:103cc000c6a79f00d7a79f000a01be006044b800a6
:103cd0006055b8007e05070040060700e0af9f0072
:103ce000f1af9f0082b79f0093b79f00110037008c
:103cf0000800be000a01be0038060700e0af9f00c2
:103d0000f1af9f0082b79f0093b79f008a0607001c
:103d10000002be000203be000800be000a01be0091
:103d2000440707000002eb00d4879f000004be0098
:103d30000205be000802be000a03be00e1f6200034
:103d400010c0b300d4b79f00e5b79f00f6b79f003f
:103d500087bf9f00100037003104be003105be0050
:103d60006faa9700ffaa97000fb397009fb3970021
:103d7000f8a79f0089af9f009aaf9f00abaf9f004d
:103d80000820e10009a8e1000ab0e1000bb8e10059
:103d9000030039000040e800f44f5000eeff3a0005
:103da000cfaa97005f8297005fab97000482520012
:103db000afb39700060752005fb49700efb49700c7
:103dc0007fb597008fbd97000002fb00e0479f0082
:103dd000040757000480200004826300c4af9f00e2
:103de00002003a00e00f5300010032000e07e90024
:103df0002fb0970063026000010032000e07e90057
:103e0000afb09700648260003b00320062826000c5
:103e1000e1826000e00f5200110032003c0290008d
:103e20000404b200080032001c037800b4c2b300de
:103e3000e08f52000100320004c2e800044b780019
:103e4000060ee80015003700b0022000e08f520097
:103e5000010032000080e8008c0078000c00370080
:103e6000e08f5200200032003c0290000404b200b7
:103e7000050032009c02780004c2b300844a780036
:103e8000050ee800050037008c00780000022000d5
:103e900000040700e10f4000130032008d06e80027
:103ea000110037003c0290000404b200040032000c
:103eb0001c027800054a7800040ee800070037006d
:103ec000c5b79f008c00780000032000f1030700b5
:103ed000cfb29700e10f4000010032008d06e800ec
:103ee0000e07e9000100370005c3b300e00f5700db
:103ef000ecff3c006b0037002fb1970068026100b7
:103f000015003a00110037003c0290000404b20092
:103f1000040032001c027800054a7800040ee80014
:103f200007003700c5b79f008c0078000002200012
:103f3000d8030700cfb29700e10f40000100320024
:103f40008d06e8000e07e9000100370005c2b30046
:103f5000e00f5700ecff3c00afb1970062826100b8
:103f6000e1826100e00f5200110032003c0290003b
:103f70000404b200080032001c037800b4c2b3008d
:103f8000e08f52000100320004c2e800044b7800c8
:103f9000060ee80015003700b0022000e08f520046
:103fa000010032000080e8008c0078000c0037002f
:103fb000e08f52003b0032003c0290000404b2004b
:103fc000050032009c02780004c2b300844a7800e5
:103fd000050ee800050037008c0078000002200084
:103fe000ac030700e10f40002e0032008d06e80010
:103ff0002c0037003c0290008502fb000404b20054
:104000001300320066f62000c32add00850243005b
:104010001c0278000800be000a01be00e4af9f0049
:104020005503be004502be0035070700a40020006e
:10403000050020006033b80038070700efab970099
:1040400004c3b300844b4000070ee80013003700a0
:1040500066f62000c32add00850243000800be008a
:104060000a01be005503be004502be00240707003a
:10407000a4002000050020006033b80027070700d7
:104080008c00780004032000000242000400780045
:1040900080030700e10f40000c0032008d06e800ad
:1040a0000a0037000800be000a01be006fac97008e
:1040b000ffac97000fb597009fb59700f0a79f0042
:1040c00081af9f0092af9f00a3af9f006f42970008
:1040d0008442e900e5479f00e04f5200c5ff3a00e7
:1040e000130037003c0290000404b20004003200c8
:1040f0001c027800054a7800040ee800070037002b
:10410000c5b79f008c007800000320006103070002
:10411000cfb29700e10f4000010032008d06e800a9
:104120005f8297000402e900d4879f0005003700f2
:104130007fa497008fac97001fad9700afad97009d
:1041400005c3b3005f829700e00f5200e5ff3c001b
:10415000dfa89700f28f50000300340024c1b300a1
:10416000e4479f00020037002fd99700e2479f00e5
:10417000dfa99700ef4297000502fb00048251007f
:10418000d4af9f00e0cf520003003a004faa97003f
:10419000e00f52000e0032003c0290000404b20016
:1041a000050032009c027800e4c2b300844a780023
:1041b000050ee800050037008c007800e0022000c2
:1041c00034030700e10f4000010032008d06e800d3
:1041d0006f40970027f907000002be000203be00ef
:1041e0000800be000a01be0069f620009c05070019
:1041f000fa040700e0af9f00f1af9f0082b79f0075
:1042000093b79f00380037003c0290008502fb0006
:104210000404b20012003200c32add00858244008b
:104220001c0478005503be004502be006fa897002d
:10423000ffa897000fb197009fb197000ac3b30082
:10424000af060700a4002000050020006033b8007e
:10425000b20607000a4c4000080ee80012003700c2
:10426000c32add00858244006fa89700ffa897004d
:104270000fb197009fb197005503be004502be00e5
:104280009f060700a4002000050020006033b8004e
:10429000a20607008c0078000003b000fd020700b2
:1042a000e10f4000010032008d06e800ef45970065
:1042b0000b02fb004322dd00048244006fa897003c
:1042c000ffa897000fb197009fb197005403be005d
:1042d0004402be0091060700e0af9f00f1af9f00cf
:1042e00082b79f0093b79f006f4297008442e90016
:1042f000e5479f00e04f5200c3ff3a000f00370030
:104300003c0290000404b200040032001c02780059
:10431000084a7800040ee800050037008c00780099
:1043200000032000db020700e10f40000100320023
:104330008d06e8008904e90002003700dfac970031
:1043400008c3b300e08f5400edff3a00afb297000e
:1043500068826200c3023200e00f5700c1023400dd
:1043600008c2b3003c0290000404b2000400320012
:104370001c027800084a7800040ee80005003700a7
:104380008c00780000022000c2020700e10f40000c
:10439000010032008d06e8000e07e900f1ff3a0047
:1043a000b0023700afb29700050cb20040003a00ef
:1043b0002fb39700e00f530005003d003fa8970082
:1043c0004005be004004be00b0af9f0011003700a2
:1043d000afb0970070826000130032003faa9700d0
:1043e0004401be0084027800c28f9f00d38f9f00db
:1043f000b4af9f00150290004fa2de00e48f9f0033
:10440000f48f9f004f8c9700df8c97006f8d970083
:10441000ff8d9700e8af9f00f9af9f008ab79f001c
:104420009bb79f000b003700bfac97004902780094
:1044300004007800cf80de0001017800820178005e
:10444000b9af9f00e0af9f00f1af9f0082b79f0020
:1044500093b79f006faa9700ffaa97000fb397002a
:104460009fb39700e00f5200e08f5a00e00f5b000f
:10447000e08f5b0034003d00afb297006fac970057
:10448000ffac97000fb597009fb597003500b300bc
:10449000a5b79f006022b8006033b800080452003e
:1044a00089845a000a055b008b855b002200370077
:1044b000afb49700e08f540005003d003faa97007d
:1044c0004401be004400be00b4af9f000e003700a0
:1044d0002fb39700f0026300100032003fad970049
:1044e0004a04be00a48f9f00888f9f00998f9f0071
:1044f000b48f9f000f8897009f8897002f8997009f
:10450000bf899700baaf9f00e0af9f00f1af9f0057
:1045100082b79f0093b79f000b003700bfa897009a
:1045200041027800b1af9f00040478000900200028
:104530000a0020000b002000e8af9f00f9af9f00a9
:104540008ab79f009bb79f00dfac9700e08f5400b5
:104550000d003a001a0020006fa89700ffa89700ee
:104560000fb197009fb19700daaf9f00e00f5000a6
:10457000e08f5800e00f5900e08f59000200320030
:104580008000eb00d1af9f002fb197000404200002
:10459000020cb200f2a79f00840f510034003200d9
:1045a00003003c00e00f51000800320048003700d3
:1045b00004082000ffa19700848f510014003200ee
:1045c000040c2000848f510041003a00e1f62000e5
:1045d00010c0b3003102be003103be006fac9700c3
:1045e000ffac97000fb597009fb597000440e1001e
:1045f00005c8e10006d0e10007d8e100330039002a
:104600000040e800f44f5000f2ff3a002f0037005e
:1046100010c0b30004012000050020006033b80082
:104620006fac9700ffac97000fb597009fb5970050
:104630000440e10005c8e10006d0e10007d8e10030
:1046400022003900490020000402d0008582d200f7
:104650000683d2008783d2008904e900faff3a007a
:104660000040e800f04f5000edff3a00170037001f
:1046700010c0b30084002000050020006033b800a3
:104680006fac9700ffac97000fb597009fb59700f0
:104690000440e10005c8e10006d0e10007d8e100d0
:1046a0000a003900390020000402d0008582d200bf
:1046b0000683d2008783d2008904e900faff3a001a
:1046c0000040e800f54f5000edff3a00e0479f0042
:1046d0006f459700dfad97000a02fb008b0f520079
:1046e00002003d00eb479f00040037005fa89700e1
:1046f000840f500001003d00d4af9f00cfa8970069
:10470000e08f5000050032002fb197006302610076
:10471000020032008100e900c1af9f0004002400c4
:10472000afb1970004826100090032004faa9700e0
:10473000dfaa9700850f52000300340005025200e3
:10474000c4af9f00020037000003eb00c6af9f001c
:10475000448c2000afb39700848263004408b1000a
:10476000848f520006003a004fac9700e00f5400cf
:10477000110032000804e900c8af9f000e003700a6
:10478000048c2000afb49700848264000404b1005c
:10479000848f520008003a004fad9700e20f550099
:1047a000030034000a85e900caaf9f000200370009
:1047b0008005eb00cbaf9f006f4097008000eb00bf
:1047c0000002fb00e1a79f004fa99700840f510052
:1047d0000200340004025100e4a79f00afb197002b
:1047e000648261006000320062826100e1826100e7
:1047f000e00f5200100032003c0290000404b200ae
:10480000080032001c037800b4c2b300e08f5200ed
:104810000100320004c2e800044b7800060ee800f4
:104820003a003700b0022000e08f5200330032001f
:104830000080e80031003700e08f520009003200ac
:104840003c0290000404b200030032009c02780095
:1048500004c2b300220037008c0078000002200060
:1048600027003700048c20002fb3970084026300d8
:104870000404b100848f520025003a003c029000ed
:104880000404b200050032009c02780004c3b300a7
:10489000844a7800050ee800050037008c00780097
:1048a000000320007b010700e10f400001003200ff
:1048b0008d06e8003c0290002fb397000404b2007c
:1048c0000602b200e00f5200080032009c0278009d
:1048d00084c7b300e00f53000100320084c5b30069
:1048e000844a7800050ee8000800370080072000a1
:1048f000e00f530001003200800520008c0078009a
:1049000064010700e10f4000010032008d06e8005d
:10491000efa39700e08f53008800320008c3b30074
:10492000870478003c0290000404b20004003200c6
:104930001c027800084a7800040ee80005003700e1
:104940008c0078000003200052010700e10f4000b6
:10495000010032008d06e8008904e900f1ff3a0009
:10496000e9a79f00750037006fa49700e00f54007f
:1049700015003200afb497006882640012003a005c
:10498000efa4970008c2b3003c0290000404b200f8
:10499000040032001c027800084a7800040ee80087
:1049a000050037008c007800000220003901070064
:1049b000e10f4000010032008d06e8008904e900a3
:1049c000f1ff3a00e9a79f002fb59700620265004a
:1049d000e1026500e00f5200110032003c0290003d
:1049e0000404b200080032001c037800b4c2b30013
:1049f000e08f52000100320004c2e800044b78004e
:104a0000060ee80015003700b0022000e08f5200cb
:104a1000010032000080e8008c0078000c003700b4
:104a2000e08f52000e0032003c0290000404b200fd
:104a3000050032009c02780004c2b300844a78006a
:104a4000050ee800050037008c0078000002200009
:104a500010010700e10f4000010032008d06e80060
:104a6000048c2000afb59700848265000408b10073
:104a7000848f520009003a003c0290000404b20006
:104a8000030032009c02780004c3b3001f0037000b
:104a90008c007800000320002400370004882000e8
:104aa000848f520025003a003c0290000404b200ba
:104ab000050032009c02780004c3b300844a7800e9
:104ac000050ee800050037008c0078000003200088
:104ad000f0000700e10f4000010032008d06e80001
:104ae0003c0290002fb397000404b2000602b2000b
:104af000e00f5200080032009c02780084c7b30027
:104b0000e00f53000100320084c5b300844a7800ee
:104b1000050ee8000800370080072000e00f530072
:104b200001003200800520008c007800d9000700c9
:104b3000e10f4000010032008d06e8005fa89700f9
:104b4000afb197000003e900f08161006332b90062
:104b5000c230dd00040178004333dd0064f620003c
:104b6000c1af9f000407430082979f002fb29700b8
:104b7000f3879f000402b200e4879f009f00370084
:104b8000dfaa97007fa397008502e90007042000b1
:104b9000d5af9f00870f53007100320003003c0027
:104ba000e00f5300080032007c00370004082000aa
:104bb0007fa49700840f540054003200040c20009e
:104bc000840f540075003a00afb49700e08f540092
:104bd0001e003d003e04be002e05be006fa89700db
:104be000ffa897000fb197009fb197000802be0081
:104bf0000a03be00420407000802be000a03be000a
:104c0000e0479f000000fb00cf80de00010178003c
:104c100082017800a30407006faa9700ffaa9700fb
:104c20000fb397009fb397000002520081825a0091
:104c300002035b0083835b00e4af9f00f5af9f003e
:104c400086b79f0097b79f002c003700ff82970020
:104c5000e08f5200210032006faa9700ffaa970050
:104c60003e04be002e05be000400be000801be00ca
:104c7000b4b79f00c5b79f0044f507000801be0008
:104c8000e0479f000004eb000000fb00cf80de0047
:104c90006a0307003fb29700cfb29700c8979f0002
:104ca0000003520081835a0096979f00a7979f00a8
:104cb0008003eb00b7979f001f909700af9097007d
:104cc0003f919700cf919700e0af9f00f1af9f0019
:104cd00082b79f0093b79f00080037001e0278003c
:104ce0006fa99700110009000481d800a4002000da
:104cf000110009000480d800e1479f00ef419700b0
:104d00000343b000e3479f002400370074012100f3
:104d1000ef829700e08f5200010032006400210012
:104d20006fa89700ffa897000fb197009fb1970059
:104d30004fab97000603e900050033008301d10063
:104d40000281d3008180d3000080d300f9ff3700b7
:104d50006f00600064407800e0479f000f0037005c
:104d60006faa9700ffaa97000fb397009fb3970011
:104d70000f9497000804e900050033008703d10071
:104d80000683d3008582d3000482d300f9ff370065
:104d9000674262000443b000e4479f003c02900079
:104da0000404b200070032009c0278006f429700b2
:104db000844a7800050ee800e04f520007003a00f0
:104dc00007003700ef4497008c0078000900fb00d3
:104dd00030000700e10f4000010032008d06e800be
:104de0004fad97008f95970064055500e3855500fa
:104df000caaf9f008b979f00680757005fa8970076
:104e0000e00f50005eff3a00afb09700688260008c
:104e1000140032006fa19700e00f51001100340020
:104e200008c2b300820478003c0290000404b2007f
:104e3000040032001c027800084a7800040ee800e2
:104e4000050037008c0078000002200011000700e8
:104e5000e10f4000010032008d06e8008904e900fe
:104e6000f1ff3a00df91970013407800e0479f0080
:104e7000e04f50006ff63a004f0778000d007800c1
:104e80004f06be004f05be004f04be00ef06b10046
:104e900000000600889fbe00010478008084eb00bb
:104ea00038029000e20262003b0032000403780006
:104eb000980290000620b20002003a00e08f5200f3
:104ec00035003a000490a000800478003404980073
:104ed000f90fb200e08f520002003a00a8029000e1
:104ee000050c7800ea8f540005003a000408b2006f
:104ef00003003a0088007800d0002000e5ff07009a
:104f000018029000d8029000850f52000b0032006a
:104f10000402e80015c0b3001404980018027800d9
:104f2000094a7800040ce80064052100054a78006d
:104f3000ea8f540018003a00050037000940780055
:104f400088007800170007008004780012003700fe
:104f5000380290000410b2000f00320018019000d7
:104f6000a80090004800900072f20700180290001c
:104f7000840f500004003200380290000403b30094
:104f8000340498008084eb000002eb0014049800c5
:104f900028029000040c7800090078004f04be003d
:104fa000000006000200fa00889fbe00010478009d
:104fb000a0ff9f0038029000840278000504b20030
:104fc000020032000000fb0035003700e202620000
:104fd00005003a000403b300150498003404980057
:104fe0000080eb002e003700d8049000e08f5400c2
:104ff00006003a0012002000e680570048009000aa
:105000004cf207001904980023003700a802900012
:10501000e08f520008003a00a50521000430a000ee
:1050200025049800050c7800340498002500200021
:10503000550498001504980018019000a8009000ed
:10504000480090003bf20700280290008082eb00ad
:1050500015049800affa9700054a7800040ce800a0
:105060002ffa9700ea4f52000b003a0038029000e6
:105070000410b2000800320018019000a80090004f
:10508000480090002bf207000002eb00a8029000fd
:1050900014049800050c78002ffa97000400fb0018
:1050a0004f04be000080fa000000060000c0da00d5
:1050b000000006002800fa00889fbe008a9fbe00fc
:1050c0008c9fbe0007067800878669000c003b00b5
:1050d000030478008704780008f0a10009f0a1001b
:1050e000840f5000858f5800860f5900890f5c008f
:1050f000030033000cf0a20001003a000cf0a10004
:10510000fe0007006400e1005f0032007801470004
:105110006408e100610032006c01470074855700ab
:105120003200be001201be003a04be001a05be00e5
:105130001e039000be0a90008503530006003d0048
:105140000004fd008104fd000205fd008305fd0053
:105150008703ea00050378000df8a300040032007d
:1051600060041400e0841c0060051d00e0851d0043
:105170006022b8007d0320000d38e1008006eb00be
:105180000b0039004433dd00f300b20083017300eb
:1051900039003700848272000d027800e106640055
:1051a0008b85d1000a85d3008984d3000884d3007d
:1051b0008703e900f7ff3b000800400089804800b2
:1051c0000a0149008b81490004003b006000100087
:1051d000e080180060011900e08119000358a30065
:1051e000090032008d8272008482720061026000c8
:1051f0008301d1000281d3008180d3000080d300dd
:105200000603e8001b0037000348a30017003a001c
:105210000600e000170034000603e9000d00a300bb
:105220000000480081804800020149008381490054
:105230000348a3000f003a000600e0000900340014
:105240000603e90000004000818048000201490097
:105250008381490001003a000003eb000348a300ea
:10526000f5ff32006022b80002003700848272002d
:10527000618266007500070003f0a1000cf0a70032
:1052800003f0a000b1003700640147006408e100aa
:1052900002003a000df8a300a9003a003200be0057
:1052a0001201be00a90037008f1fd100260307009e
:1052b0008f87e9000000e00000000600809feb00ff
:1052c000210307008f87e9000000e00000000600ce
:1052d0002800fa00889fbe008a9fbe008c9fbe00f7
:1052e00003866b00850007006400e1004400320083
:1052f0006408e1004a0032006100e100460032002b
:105300006108e10049003200ec0647006000b80087
:105310003d02be003d03be00f48657006011b80098
:105320003d04be003d05be007d0320000b0037009c
:105330000000a0008d06e9001300320004024200c4
:1053400085824a0006034b0087834b000000400023
:10535000818048000201490083814900080252000f
:1053600089825a000a035b008b835b00f0ff3b00dd
:105370000802420089824a000a034b008b834b00db
:105380008d06e900edff3a00848272008682720089
:10539000f707b2008782720001003200150020007a
:1053a0001e0490003e0b900006035400e63fb00040
:1053b0000368a300070032000000a7000500a0005a
:1053c0008301d1000281d3008180d3000080d3000b
:1053d0000603e8008301d1000281d3008180d3005d
:1053e0000080d3000002eb000482d2001700070007
:1053f00003f0a1000cf0a70003f0a0005300370059
:10540000640247006408e1004d0032003400be0031
:105410003401be00f6ff37006108e10048003200a9
:105420006011b8006000b800f1ff370003ff2700eb
:1054300002002000fbff3700801feb00c2020700c4
:105440008f87e9000000e00000000600180020003f
:1054500057002000080453000d003d000600200006
:1054600097fc2f000740e1001e0034008482720088
:10547000610260008301d1000281d3008180d300ea
:105480000080d3000804e800f8ff3a00470020003d
:105490006104600005047400040464000d0032001f
:1054a00061004000e080480060014900e08149005f
:1054b00003b8a500070032000603e8006538e100e4
:1054c00004003a008301d1000281d3008180d3001f
:1054d0000080d300f87f20000830e1000300350091
:1054e000080378006000b8006011b8004433dd00a4
:1054f000f300b20083017300000006006804470057
:105500000294be000094be00fc0447008694be00d6
:105510008494be0009007800d402070008007800d7
:10552000d202070099007800814f70000b003b0009
:105530000800be00ad0207004f00b10003003700b5
:10554000f3ff2700f2ff2f006110b9004f06be00e5
:105550004f05be004f04be000080fa0000000600a8
:10556000810378003df207000001be006000b80032
:105570000478a30013003a006220e10015003e0009
:105580000d0039008301d1000281d3008180d30056
:105590008301d1000281d3008180d3008301d10037
:1055a0000281d3008180d3000538b000c42add0019
:1055b000f300b2008381720007f0a70003f0a0009f
:1055c00000000600f3ff2700f2ff2f006110b90072
:1055d000fbff370003ff2700f7ff37001400fa0036
:1055e000889fbe008a9fbe008c9fbe000004be0044
:1055f0000205be00680047000a90be000890be0089
:105600009a0207000070a7000bf0a1000bf8a3009e
:1056100020003a009e0990000e099000fe009000c4
:105620006e0090009e02900034432000848252005d
:10563000c6ff32000a003c00b4fc2f000428e10041
:10564000140034008301d1000281d3008180d30093
:105650000080d3008502e800faff3a00bbff370064
:10566000b40020000428e10007003c0000004000d6
:105670008180480002014900838149008502e900d8
:10568000faff3a00b1ff37000300280002002000b3
:10569000010037006011b8006000b800abff3700b0
:1056a0001400fa00889fbe008a9fbe008c9fbe0037
:1056b0000004be000205be00680047000a90be005c
:1056c0000890be00690207000070a7000bf0a1005f
:1056d0000bf8a30016003a009e0290003043200011
:1056e00080825200b0fe2f000028e1000d003c0037
:1056f000b0fc2f000028e1000d0034001e099000ce
:105700008e0890007e0090000501b0000201d100db
:105710008180d3000080d3008502e800fbff3a00bf
:105720008aff3700010028000000200087ff3700b3
:105730006000b80085ff3700889fbe0000827000bf
:1057400004027100048271002400320036432000fc
:10575000c50020008383cf000a0039000541b10055
:105760008283cf00070039000541b1008183cf005b
:10577000040039000541b1008083cf0001003900e9
:105780000541b10085c353006022b8001200320009
:105790000a003b0084827200610260008301d10034
:1057a0000281d3008180d3000080d3000603e8008b
:1057b0008743e800f7ff3a00070037000000400089
:1057c0008180480002014900838149000603e90005
:1057d0008743e900f9ff3a001cff07004f04be00b1
:1057e000000006006011b800d3ff37001400fa0073
:1057f000889fbe008a9fbe008c9fbe000406780072
:105800000004be000205be00680047000a90be000a
:105810000890be00150207006200e1000800be000b
:105820000a01be00040020000b003a001e02900096
:10583000e43fb1006e009000fe0090000e09900061
:105840009e099000f300b20005fe230085817100df
:105850000bf0a70003f0a000040e78003bff370018
:105860002800fa00889fbe008a9fbe008c9fbe0061
:1058700003866b0021ff07000028a30064003a00a4
:105880000128a30067003a000008a30062003a0064
:105890000108a30065003a001e009000be089000b9
:1058a00081064000ed3fb100f4805700ee0190000a
:1058b000111ab8008e099000311bb8009e099000a3
:1058c000311cb800511db800f48557004600070090
:1058d000fe0190003a0007008b85e8003e000700bb
:1058e0008e09900040000700ee0190003400070090
:1058f0008b85e800380007008e0990004000070003
:105900009e0990001b18b800890440000a854800d1
:10591000fe019000340007008b85e8003800070086
:10592000ee019000300007008e0990001b18b800af
:10593000890440000a8548000a98a30008003a003c
:105940000402420085824a0006034b0087834b0015
:1059500008044c0089844c000a054d008d06e900be
:1059600084827200850273004c3add008502720069
:105970000100320015002000443ade001400b2009d
:105980004538de00cb45dd000b007000c540de0071
:10599000cb4ddd008b8070004549de00cb55dd002e
:1059a0000b017100c551de000d037800a7fe070052
:1059b00003f0a1000cf0a70003f0a000e3fe370005
:1059c0001b18b8008502400006834800e0834b00a6
:1059d00060044c00070037001b18b80006034000a5
:1059e00087834800faff37001b18b8008703400080
:1059f00008844800e0844c0060054d00000006006b
:105a00001b18b8000804400089844800faff3700da
:105a10000108a300cafe3a005800be005801be00ab
:105a2000e3ff37000008a300c5fe3a000904780030
:105a3000f9ff370007f0a2009efd3700020ab90007
:105a4000001bb9000200b800810042008100430041
:105a500000000600889fbe008a9fbe003004be0082
:105a60002005be000404440085844c0006054d005a
:105a700087854d000898be000a90be000440e100f2
:105a800005c8e10006d0e10007d8e10002003100be
:105a9000680040001008e8004f05be004f04be003b
:105aa000000006001000fa00889fbe008a9fbe001a
:105ab000110020000605be000404be003002be0036
:105ac0002003be00c4b79f00d5b79f00e6b79f0074
:105ad000f7b79f000802520089825a000a035b0050
:105ae0008b835b0084bf9f0095bf9f00a6bf9f0074
:105af000b7bf9f000498be000698be004fb2970043
:105b0000dfb297006fb39700ffb397000820e10062
:105b100009a8e1000ab0e1000bb8e100010039007a
:105b20008000eb004f05be00108810004f04be003f
:105b30000080fa00000006001400fa00889fbe00f2
:105b40008a9fbe008c9fbe000006eb003e0007004f
:105b5000ccb79f00bcb79f00acb79f009cb79f001d
:105b60008cb79f000605be000404be000d04200093
:105b70004fb39700bfb29700860343002fb2970040
:105b8000e00f530004003d003d0007000f004000ff
:105b9000b0ff070003003700390007000f00400086
:105ba000c0ff0700cfb2970095bf9f00e08f520063
:105bb000090035002b00070014002000050020001c
:105bc0006033b8000000720081807200020173002f
:105bd000838173001c0007000c06e8008d0f56003f
:105be000e3ff3a001fba9700e00f520005003d00a6
:105bf0000802be000a03be0000fe2f000f00400096
:105c000094ff07004faa9700e00f520008003a00e7
:105c10000fb497009fb497002fb59700bfb59700ba
:105c2000d8b79f00e9b79f00fab79f008bbf9f00ce
:105c30000c0007004f06be004f05be004f04be001b
:105c40000080fa00000006000100070000000600c6
:105c500090b79f00a1b79f00b2b79f00c3b79f0046
:105c60000000060001000700000006001fb09700ba
:105c7000afb097003fb19700cfb19700000006008a
:105c80004f2bde00f9ff07008683730085824200f8
:105c90004f23de00a7b79f008682720004024200f5
:105ca00095b79f00ffaa97004f2bde008582420028
:105cb0000602720084b79f006faa97004f23de0090
:105cc0000402420086827200f5af9f004f18de008a
:105cd00000027200e5ff0700e4af9f0000004000f3
:105ce0008180480002014900838149000802be000a
:105cf0000a03be00d6ff070000fe2f0000000600ca
:105d0000881f780018002000881f78008aff07008d
:105d10008f87e9004f04780000000600801feb0029
:105d200085ff07008f87e90000000600889fbe00fe
:105d30008a9fbe00e00f5000e08f5800e00f59002e
:105d4000e08f59000c003d006044b8006055b80079
:105d50000000540081805c0002015d0083815d00d1
:105d6000180020001500070008003d00180007007b
:105d70000004eb00050037000004eb000f000700f3
:105d800002003d001200070018002000dcff0700a1
:105d9000e00f5400060032006022b8006033b80003
:105da0000000520081805a0002015b0083815b0089
:105db0004f05be004f04be0000000600e00f520079
:105dc000e08f5a00e00f5b00e08f5b0000000600f0
:105dd0006044b8006055b8000402540085825c003d
:105de00006035d0087835d0000000600889fbe00fb
:105df0008a9fbe008c1f7800e00f5000e08f580093
:105e0000e00f5900e08f59000d003d006044b800dc
:105e10006055b8001c0020000000540081805c0028
:105e200002015d0083815d000820e10009a8e10016
:105e30000ab0e1000bb8e1000d003d00080037009a
:105e40000006eb00e00f5200e08f5a00e00f5b000d
:105e5000e08f5b0006003d006044b8006055b8006c
:105e60000402540085825c0006035d0087835d00a8
:105e7000aaff0700e00f5600060032006022b800bb
:105e80006033b8000000520081805a0002015b00bc
:105e900083815b004f0678004f05be004f04be00b3
:105ea00000000600889fbe008a9fbe008c1f7800fd
:105eb0000006eb00e00f5000e08f5800e00f5900a3
:105ec000e08f590007003d006044b8006055b800fd
:105ed0001c0020000000540081805c0002015d0075
:105ee00083815d00e00f5200e08f5a00e00f5b00fd
:105ef000e08f5b0007003d006044b8006055b800cb
:105f00000c00a2000402540085825c0006035d00c0
:105f100087835d007c000700e00f5600060032001a
:105f20006022b8006033b8000000520081805a003f
:105f300002015b0083815b004f0678004f05be00c5
:105f40004f04be0000000600889fbe008a9fbe006e
:105f50008c9fbe000404be000605be00809fbe00ec
:105f6000829fbe002f000700040678000800be00d4
:105f70000a01be002b000700840678004f03be0014
:105f80004f02be008d4f76007fb0970013003300a4
:105f9000f0ff2f008b8f6b0006003b000d066600a4
:105fa0000c00a7000a00370007f0a6001000200030
:105fb0000a003700880f5200898f5a008a0f5b0051
:105fc0008b8f5b00030039001000200001003e00b1
:105fd0000000200007f0a7000000ea004f06be0006
:105fe0004f05be004f04be0000000600e4824000e2
:105ff0001078a30007003200640240001178a3006b
:106000003400be001401be00040032000330a700bb
:10601000000006003500be001501be000330a000e0
:106020000000060005ff270005826100070032001e
:106030000428e100010032002400050006000700ea
:1060400001003a00440005000408050002000700b2
:10605000f9ff3a00140005006f82610081027000b0
:106060008502710085027200000006008000780041
:106070005002be005003be004439de00f700b200fb
:10608000f37f200003016100090032000218e100e3
:1060900016003a008501720083017300838173004a
:1060a0000008200015003a004000200013003700cf
:1060b00085017200830173008381730005003a003b
:1060c00004a8be0006a8be00100020000b00370088
:1060d0000201e9000402420085824a0006034b00e7
:1060e00087834b000748a300f9ff32000740a00058
:1060f00004a8be0006a8be00200020008000980072
:106100009200980000000600889fbe008a9fbe0093
:106110008c9fbe000404b8000506b8008904460040
:1061200060854e000606b8000a054600e0854e0070
:106130000706b8008b054600040eb8008904460027
:106140000a854e00e0854d00050eb8000a054600a0
:106150008b854e00060eb8008b0546000416b8006d
:106160000a0546008b854e000516b8008b054600d3
:10617000041eb8008b0546000800be000a01be00e0
:106180004f06be004f05be004f04be0000000600d3
:020000040000fa
:10619000302e000034000000204c0000532000008e
:1061a0004d6100006b650000722000007625000044
:1061b00073000000204c0000532000004d610000df
:1061c0006b650000722e000020760000000a0000bf
:1061d0000d000000202000004d410000433d000064
:1061e00000410000544500004e430000494f0000ac
:1061f0003a20000045520000524f0000522000009b
:10620000454e00002045000045500000524f000060
:106210004d0a00000d00000050720000656d000086
:10622000204700005042000075740000746f0000a9
:106230006e2000007065000072200000636f000097
:106240006d6500006ee70000617200002e2e0000f8
:106250002e000000257300000041000020630000b4
:106260006f720000726500007221000000000000e3
:1062700045720000726f000072200000677200001b
:1062800065750000206500006e2000004545000097
:10629000505200004f4d00000a0d00000020000089
:1062a00020200000204c000061200000536100000d
:1062b0006c6c000065000000000000009100000010
:1062c00013010000860100000d0200000000000024
:1062d000ee020000140500006c07000060090000d9
:1062e0007374000072650000616d000041000000e1
:1062f0007374000072650000616d000042000000d0
:020000040000fa
:106300000000fa00d302a800d322a800d342a800bc
:10631000d362a800c7e2a800e522a800c7c2a8006f
:10632000cdc2a800d8a2a900d8c2a900d8e2a9006d
:10633000c722a900c742a900c762a900c782a90055
:10634000c7a2a900dcc2a900dca2a900dce2a90066
:10635000cb22a9000002eb00240c880024032000bb
:10636000140c880024032000040c88006400200022
:10637000240c88000002eb00540c88002403200049
:10638000440c880024032000340c880064002000a2
:10639000540c88001281a80012a1a90013e1a800e2
:1063a0000002eb00840c8800441f2000740c88005d
:1063b000441f2000640c8800e4002000840c880046
:1063c000d242a900440d230074088800d262a900bb
:1063d0000002eb00b40c8800441f2000a40c8800cd
:1063e000441f2000940c8800e4002000b40c8800b6
:1063f000e42e2000640c8800e42e2000940c880019
:1064000024c3b3000443780095cf2000864a780067
:1064100094cf2000144278000443780085cf2000f8
:10642000864a780044062000640888001081a9008c
:1064300010a1a90011e1a8000002eb00e4688800a7
:10644000fb2007000002780034688800d41b070096
:1064500000427800e04f520028003a00c4de2000dd
:10646000120020008400780090092000b81a07006c
:10647000d4de20001200200084007800a009200053
:10648000b31a0700e4de2000120020008400780028
:10649000b0092000ae1a0700e4de200014427800a4
:1064a0000402fb002503200004825200cfa2de007c
:1064b0000400be0040ee07000002be00846f8800aa
:1064c000956f8800846f8000956f80000200200027
:1064d000832c24000400be00a6ed07000002be00cd
:1064e0000200200003f823000400be0042ed070074
:1064f0000002be00846f8800956f88006022b8009b
:1065000094698800a569880094698000a569800065
:106510005469880065698800546980006569800055
:1065200034698800456988003469800045698000c5
:106530001469880025698800146980002569800035
:10654000f4688800056988000400200005f823002d
:10655000746988008569880014c0b300044378001a
:1065600065d32000864a78000080fa00000006000b
:106570000000fa000080fa00000006000200fa00a5
:10658000000f78001e027800cfa2de003600200047
:1065900007002000860f5200878f5a000d003e0032
:1065a00004600100030037000400370005003700d5
:1065b00006003700646880000700370074688000b8
:1065c000050037008468800003003700946880006d
:1065d000010037000002eb00040078000080fa00a0
:1065e000000006000200fa00000f78001e0278008a
:1065f000cfa2de003600200007002000860f5200e8
:10660000878f5a000d003e00046001000300370030
:10661000040037000500370006003700a46880003a
:1066200007003700b468800005003700c4688000a8
:1066300003003700d4688000010037000002eb003f
:10664000040078000080fa00000006000400fa0050
:10665000000f7800110798001e027800e20f520028
:106660000a003a001e0290006522b9000402780078
:10667000441fb000640c88001e02900004427800a1
:106680000443780085cf2000864a78001e027800f7
:10669000e30f52000a003a001e0290006522b90082
:1066a00004027800441fb000940c88001e02900081
:1066b000044278000443780095cf2000864a780091
:1066c0000080fa00000006000200fa00000f7800c7
:1066d0001e027800e20f520004003a0084cf20002e
:1066e000144278000482fb00080037001e02780084
:1066f000e30f520004003a0094cf200014427800c7
:106700000482fb00010037000002eb000400780067
:106710000080fa00000006000800fa001007980048
:106720002107980032079800ae029000440620002e
:10673000848f520002003400440620002407980091
:106740002e029000e00f520002003d000002eb001c
:10675000240798002e029000e00f52001d003a001e
:106760001e029000cfa2de003600200007002000ad
:10677000860f5200878f5a00a4003e00046001007b
:106780000300370006003700090037000c0037000f
:10679000dcc2a9000002eb00646888000c0037002e
:1067a000dca2a9000002eb00746888000800370032
:1067b000dce2a9000002eb008468880004003700d6
:1067c000cb22a9000002eb009468880000000000c2
:1067d0008f0037001e029000cfa2de00360020009e
:1067e00007002000860f5200878f5a000d003e00e0
:1067f0000460010003003700040037000500370083
:1068000006003700dcc2a80006003700dca2a800a2
:1068100004003700dce2a80002003700cb22a80009
:10682000000000001e029000cfa2de003600200013
:1068300007002000860f5200878f5a0019003e0083
:106840000460010003003700070037000b00370029
:106850000f0037002e029000646888006468800092
:10686000040c88000f003700ae02900075688800a5
:1068700074688000340c88000a0037002e029000f3
:106880008468880084688000640c880005003700f4
:10689000ae0290009568880094688000940c88008f
:1068a000000000003e029000e10f520003003a0099
:1068b00014c0b300044f7800020037000042eb0020
:1068c000044f78001e427800614262000482fb009f
:1068d000610262004c22dd0056168000f5ff2e009a
:1068e0008502630005027200541688001e029000a3
:1068f000cfa2de003600200007002000860f5200e5
:10690000878f5a0042003e000460010003003700f8
:1069100013003700200037002d0037009e4278001a
:106920000582fb000402e9004f22de00a468880013
:10693000a468800004427800614262000482fb0087
:10694000610262004a22dd0056168000f5bf2f006a
:106950008502630005027200541688002c0037007f
:106960001e02fb00b4688800b4688000044278000e
:10697000614262000482fb00610262004b22dd0082
:1069800056168000f57f2f00850263000502720015
:10699000541688001e0037001e02fb00c4688800e1
:1069a000c468800004427800614262000482fb00f7
:1069b000610262004c22dd0056168000f5ff2e00b9
:1069c000850263000502720054168800100037002b
:1069d0001e02fb00d4688800d4688000044278005e
:1069e000614262000482fb00610262004d22dd0010
:1069f00056168000f5ff2d00850263000502720027
:106a0000541688000000000001003700000000005c
:106a10000080fa00000006000000fa005c06070093
:106a2000f4698000e10f520008003200e20f5200ca
:106a300018003200e00f520057003a00f46980005d
:106a40000402e800f469880053003700e46880001d
:106a5000e00f52000d0032000002eb00e4688800f5
:106a6000b9020700f46980000402e800f4698800b4
:106a700034002000446888003468800004427800b4
:106a8000044078008a1f0700430037009f03070077
:106a900041003700e4cf20002442900004407800f9
:106aa0006401070000027800e00f52001500320078
:106ab000840307002400200044688800140020009c
:106ac000f46988003468800004427800044078004b
:106ad000821f07000002780054688800e4cf20007d
:106ae00024429000044078005201070080027800a0
:106af000546880008500780004007800c90f070002
:106b00002500370034688000044278000440780093
:106b1000721f070000027800e5cf2000b502900048
:106b2000850f520019003900e4cf20003402900094
:106b3000e00f52001700320062030700140020002b
:106b40004468880014002000f469880034688000dc
:106b50000442780004407800601f070000027800bb
:106b600054688800e4cf200024429000044078005c
:106b700030010700800278005468800085007800aa
:106b800004007800a70f0700030037000000000092
:106b900001003700000000000080fa00000006003d
:106ba0000600fa00000f78001107980022079800ed
:106bb00014002000e46888009e027800e4cf2000e2
:106bc000350298001e02900084427800e4cf200035
:106bd000154298002e02900084427800e4cf2000f5
:106be00025429800e4cf200015c0b300054a780084
:106bf0000080fa00000006000800fa00000f78008c
:106c0000110798002207980033079800140020000d
:106c1000e46888009e027800e4cf200035029800e6
:106c20001e02900084427800e4cf200015429800b4
:106c30003e02900084427800e4cf20002542980074
:106c4000ae029000e4cf200025029800e4cf20009f
:106c500035c0b300054a78000080fa000000060045
:106c60000800fa00000f780011079800220798002a
:106c70003307980014002000e46888009e02780022
:106c8000e4cf2000350298001e0290008442780074
:106c9000e4cf2000154298003e0290008442780024
:106ca000e4cf200025429800ae029000e4cf2000ff
:106cb00025029800e4cf200045c0b300054a7800c3
:106cc0000080fa00000006000200fa00004f780081
:106cd0001e4278000443780065d32000864a78007d
:106ce0000080fa00000006000800fa002007980063
:106cf000310798003e009000c50307000002be0067
:106d0000048fbe006011b8001e00be00eaeb070051
:106d100000027800e00f520002003a000002eb008f
:106d2000130037002e029000cfa2de000400be0048
:106d300021ec07000002be001e01be000400be00e0
:106d40008ceb07000002be00048fbe000200200092
:106d5000a34724001e00be006dec07000002be0029
:106d60000400be00f9eb07000002be000402780038
:106d7000040078000080fa00000006000c00fa0011
:106d800040079800510798005e009000fd0307003f
:106d90000002be00048fbe006011b8001e00be00dd
:106da000c5eb070000027800e00f520002003a0035
:106db0000002eb00230037004e029000cfa2de005d
:106dc0000400be00fceb07000002be002407980090
:106dd0003507980002fd2000930424002e00900047
:106de000be0090004aec07000002be000200200036
:106df000433324000400be005eeb07000002be0027
:106e000024079800350798001e01be002e00900050
:106e1000be00900057eb07000002be00048fbe00ca
:106e200002002000a34724001e00be0038ec07002b
:106e30000002be000400be00c4eb07000002be005a
:106e400004027800040078000080fa0000000600c8
:106e50000000fa00881f78006022b800546988009a
:106e6000656988005469800065698000346988001c
:106e7000456988000400200005f823007469880033
:106e8000856988006022b80094698800a569880037
:106e90006022b80014698800256988006022b80063
:106ea000f46888000569880014c0b30004437800c2
